{
    "_format": "hh-sol-artifact-1",
    "contractName": "ContentRegistry",
    "sourceName": "contracts/ownership.sol",
    "abi": [
        {
            "anonymous": false,
            "inputs": [
                {
                    "indexed": false,
                    "internalType": "string",
                    "name": "cid",
                    "type": "string"
                },
                {
                    "indexed": false,
                    "internalType": "string",
                    "name": "title",
                    "type": "string"
                },
                {
                    "indexed": false,
                    "internalType": "string",
                    "name": "contentType",
                    "type": "string"
                },
                {
                    "indexed": true,
                    "internalType": "address",
                    "name": "owner",
                    "type": "address"
                }
            ],
            "name": "ContentRegistered",
            "type": "event"
        },
        {
            "inputs": [
                {
                    "internalType": "string",
                    "name": "_cid",
                    "type": "string"
                }
            ],
            "name": "getContent",
            "outputs": [
                {
                    "components": [
                        {
                            "internalType": "string",
                            "name": "cid",
                            "type": "string"
                        },
                        {
                            "internalType": "string",
                            "name": "title",
                            "type": "string"
                        },
                        {
                            "internalType": "string",
                            "name": "description",
                            "type": "string"
                        },
                        {
                            "internalType": "string",
                            "name": "contentType",
                            "type": "string"
                        },
                        {
                            "internalType": "address",
                            "name": "owner",
                            "type": "address"
                        },
                        {
                            "internalType": "uint256",
                            "name": "timestamp",
                            "type": "uint256"
                        }
                    ],
                    "internalType": "struct ContentRegistry.Content",
                    "name": "",
                    "type": "tuple"
                }
            ],
            "stateMutability": "view",
            "type": "function"
        },
        {
            "inputs": [
                {
                    "internalType": "address",
                    "name": "_user",
                    "type": "address"
                }
            ],
            "name": "getUserContents",
            "outputs": [
                {
                    "internalType": "string[]",
                    "name": "",
                    "type": "string[]"
                }
            ],
            "stateMutability": "view",
            "type": "function"
        },
        {
            "inputs": [
                {
                    "internalType": "string",
                    "name": "_cid",
                    "type": "string"
                }
            ],
            "name": "isContentRegistered",
            "outputs": [
                {
                    "internalType": "bool",
                    "name": "",
                    "type": "bool"
                }
            ],
            "stateMutability": "view",
            "type": "function"
        },
        {
            "inputs": [
                {
                    "internalType": "string",
                    "name": "_cid",
                    "type": "string"
                },
                {
                    "internalType": "string",
                    "name": "_title",
                    "type": "string"
                },
                {
                    "internalType": "string",
                    "name": "_description",
                    "type": "string"
                },
                {
                    "internalType": "string",
                    "name": "_contentType",
                    "type": "string"
                }
            ],
            "name": "registerContent",
            "outputs": [],
            "stateMutability": "nonpayable",
            "type": "function"
        }
    ],
    "bytecode": "0x6080604052348015600f57600080fd5b50610d5b8061001f6000396000f3fe608060405234801561001057600080fd5b50600436106100365760003560e01c8063014e2d851461003b5780638dc8fb9314610057575b600080fd5b610055600480360381019061005091906105b7565b610087565b005b610071600480360381019061006c91906106ec565b610345565b60405161007e919061085a565b60405180910390f35b60008451116100cb576040517f08c379a00000000000000000000000000000000000000000000000000000000081526004016100c2906108d9565b60405180910390fd5b6000846040516100db9190610935565b908152602001604051809103902060009054906101000a900460ff1615610137576040517f08c379a000000000000000000000000000000000000000000000000000000000815260040161012e90610998565b60405180910390fd5b60016000856040516101499190610935565b908152602001604051809103902060006101000a81548160ff0219169083151502179055506040518060c001604052808581526020018481526020018381526020018281526020013373ffffffffffffffffffffffffffffffffffffffff168152602001428152506001856040516101c19190610935565b908152602001604051809103902060008201518160000190816101e49190610bce565b5060208201518160010190816101fa9190610bce565b5060408201518160020190816102109190610bce565b5060608201518160030190816102269190610bce565b5060808201518160040160006101000a81548173ffffffffffffffffffffffffffffffffffffffff021916908373ffffffffffffffffffffffffffffffffffffffff16021790555060a08201518160050155905050600260003373ffffffffffffffffffffffffffffffffffffffff1673ffffffffffffffffffffffffffffffffffffffff168152602001908152602001600020849080600181540180825580915050600190039060005260206000200160009091909190915090816102ec9190610bce565b503373ffffffffffffffffffffffffffffffffffffffff167f02c76ba531fb49cfd60d746079da6e91336c7c28657753ab21b5f506d12c13a785858460405161033793929190610cd9565b60405180910390a250505050565b6060600260008373ffffffffffffffffffffffffffffffffffffffff1673ffffffffffffffffffffffffffffffffffffffff168152602001908152602001600020805480602002602001604051908101604052809291908181526020016000905b828210156104525783829060005260206000200180546103c5906109e7565b80601f01602080910402602001604051908101604052809291908181526020018280546103f1906109e7565b801561043e5780601f106104135761010080835404028352916020019161043e565b820191906000526020600020905b81548152906001019060200180831161042157829003601f168201915b5050505050815260200190600101906103a6565b505050509050919050565b6000604051905090565b600080fd5b600080fd5b600080fd5b600080fd5b6000601f19601f8301169050919050565b7f4e487b7100000000000000000000000000000000000000000000000000000000600052604160045260246000fd5b6104c48261047b565b810181811067ffffffffffffffff821117156104e3576104e261048c565b5b80604052505050565b60006104f661045d565b905061050282826104bb565b919050565b600067ffffffffffffffff8211156105225761052161048c565b5b61052b8261047b565b9050602081019050919050565b82818337600083830152505050565b600061055a61055584610507565b6104ec565b90508281526020810184848401111561057657610575610476565b5b610581848285610538565b509392505050565b600082601f83011261059e5761059d610471565b5b81356105ae848260208601610547565b91505092915050565b600080600080608085870312156105d1576105d0610467565b5b600085013567ffffffffffffffff8111156105ef576105ee61046c565b5b6105fb87828801610589565b945050602085013567ffffffffffffffff81111561061c5761061b61046c565b5b61062887828801610589565b935050604085013567ffffffffffffffff8111156106495761064861046c565b5b61065587828801610589565b925050606085013567ffffffffffffffff8111156106765761067561046c565b5b61068287828801610589565b91505092959194509250565b600073ffffffffffffffffffffffffffffffffffffffff82169050919050565b60006106b98261068e565b9050919050565b6106c9816106ae565b81146106d457600080fd5b50565b6000813590506106e6816106c0565b92915050565b60006020828403121561070257610701610467565b5b6000610710848285016106d7565b91505092915050565b600081519050919050565b600082825260208201905092915050565b6000819050602082019050919050565b600081519050919050565b600082825260208201905092915050565b60005b8381101561077f578082015181840152602081019050610764565b60008484015250505050565b600061079682610745565b6107a08185610750565b93506107b0818560208601610761565b6107b98161047b565b840191505092915050565b60006107d0838361078b565b905092915050565b6000602082019050919050565b60006107f082610719565b6107fa8185610724565b93508360208202850161080c85610735565b8060005b85811015610848578484038952815161082985826107c4565b9450610834836107d8565b925060208a01995050600181019050610810565b50829750879550505050505092915050565b6000602082019050818103600083015261087481846107e5565b905092915050565b600082825260208201905092915050565b7f4349442063616e6e6f7420626520656d70747900000000000000000000000000600082015250565b60006108c360138361087c565b91506108ce8261088d565b602082019050919050565b600060208201905081810360008301526108f2816108b6565b9050919050565b600081905092915050565b600061090f82610745565b61091981856108f9565b9350610929818560208601610761565b80840191505092915050565b60006109418284610904565b915081905092915050565b7f436f6e74656e7420616c72656164792072656769737465726564000000000000600082015250565b6000610982601a8361087c565b915061098d8261094c565b602082019050919050565b600060208201905081810360008301526109b181610975565b9050919050565b7f4e487b7100000000000000000000000000000000000000000000000000000000600052602260045260246000fd5b600060028204905060018216806109ff57607f821691505b602082108103610a1257610a116109b8565b5b50919050565b60008190508160005260206000209050919050565b60006020601f8301049050919050565b600082821b905092915050565b600060088302610a7a7fffffffffffffffffffffffffffffffffffffffffffffffffffffffffffffffff82610a3d565b610a848683610a3d565b95508019841693508086168417925050509392505050565b6000819050919050565b6000819050919050565b6000610acb610ac6610ac184610a9c565b610aa6565b610a9c565b9050919050565b6000819050919050565b610ae583610ab0565b610af9610af182610ad2565b848454610a4a565b825550505050565b600090565b610b0e610b01565b610b19818484610adc565b505050565b5b81811015610b3d57610b32600082610b06565b600181019050610b1f565b5050565b601f821115610b8257610b5381610a18565b610b5c84610a2d565b81016020851015610b6b578190505b610b7f610b7785610a2d565b830182610b1e565b50505b505050565b600082821c905092915050565b6000610ba560001984600802610b87565b1980831691505092915050565b6000610bbe8383610b94565b9150826002028217905092915050565b610bd782610745565b67ffffffffffffffff811115610bf057610bef61048c565b5b610bfa82546109e7565b610c05828285610b41565b600060209050601f831160018114610c385760008415610c26578287015190505b610c308582610bb2565b865550610c98565b601f198416610c4686610a18565b60005b82811015610c6e57848901518255600182019150602085019450602081019050610c49565b86831015610c8b5784890151610c87601f891682610b94565b8355505b6001600288020188555050505b505050505050565b6000610cab82610745565b610cb5818561087c565b9350610cc5818560208601610761565b610cce8161047b565b840191505092915050565b60006060820190508181036000830152610cf38186610ca0565b90508181036020830152610d078185610ca0565b90508181036040830152610d1b8184610ca0565b905094935050505056fea26469706673582212209f690368d4b0d102ba61e9418b5a445fc94ff1af548e4859f68b92e076a5b93764736f6c634300081c0033",
    "deployedLinkReferences": {}
}