{
  "_format": "hh-sol-artifact-1",
  "contractName": "ContentRegistry",
  "sourceName": "contracts/ownership.sol",
  "abi": [
    {
      "anonymous": false,
      "inputs": [
        {
          "indexed": false,
          "internalType": "string",
          "name": "cid",
          "type": "string"
        },
        {
          "indexed": false,
          "internalType": "string",
          "name": "title",
          "type": "string"
        },
        {
          "indexed": false,
          "internalType": "string",
          "name": "contentType",
          "type": "string"
        },
        {
          "indexed": true,
          "internalType": "address",
          "name": "owner",
          "type": "address"
        }
      ],
      "name": "ContentRegistered",
      "type": "event"
    },
    {
      "inputs": [
        {
          "internalType": "string",
          "name": "_cid",
          "type": "string"
        }
      ],
      "name": "getContent",
      "outputs": [
        {
          "components": [
            {
              "internalType": "string",
              "name": "cid",
              "type": "string"
            },
            {
              "internalType": "string",
              "name": "title",
              "type": "string"
            },
            {
              "internalType": "string",
              "name": "description",
              "type": "string"
            },
            {
              "internalType": "string",
              "name": "contentType",
              "type": "string"
            },
            {
              "internalType": "address",
              "name": "owner",
              "type": "address"
            },
            {
              "internalType": "uint256",
              "name": "timestamp",
              "type": "uint256"
            }
          ],
          "internalType": "struct ContentRegistry.Content",
          "name": "",
          "type": "tuple"
        }
      ],
      "stateMutability": "view",
      "type": "function"
    },
    {
      "inputs": [
        {
          "internalType": "address",
          "name": "_user",
          "type": "address"
        }
      ],
      "name": "getUserContents",
      "outputs": [
        {
          "internalType": "string[]",
          "name": "",
          "type": "string[]"
        }
      ],
      "stateMutability": "view",
      "type": "function"
    },
    {
      "inputs": [
        {
          "internalType": "string",
          "name": "_cid",
          "type": "string"
        }
      ],
      "name": "isContentRegistered",
      "outputs": [
        {
          "internalType": "bool",
          "name": "",
          "type": "bool"
        }
      ],
      "stateMutability": "view",
      "type": "function"
    },
    {
      "inputs": [
        {
          "internalType": "string",
          "name": "_cid",
          "type": "string"
        },
        {
          "internalType": "string",
          "name": "_title",
          "type": "string"
        },
        {
          "internalType": "string",
          "name": "_description",
          "type": "string"
        },
        {
          "internalType": "string",
          "name": "_contentType",
          "type": "string"
        }
      ],
      "name": "registerContent",
      "outputs": [],
      "stateMutability": "nonpayable",
      "type": "function"
    }
  ],
  "bytecode": "0x6080604052348015600f57600080fd5b506113658061001f6000396000f3fe608060405234801561001057600080fd5b506004361061004c5760003560e01c8063014e2d85146100515780637ea29c991461006d5780638c9e1f3c1461009d5780638dc8fb93146100cd575b600080fd5b61006b600480360381019061006691906109f8565b6100fd565b005b61008760048036038101906100829190610acf565b6103bb565b6040516100949190610b33565b60405180910390f35b6100b760048036038101906100b29190610acf565b6103ef565b6040516100c49190610cc5565b60405180910390f35b6100e760048036038101906100e29190610d13565b61073a565b6040516100f49190610e02565b60405180910390f35b6000845111610141576040517f08c379a000000000000000000000000000000000000000000000000000000000815260040161013890610e81565b60405180910390fd5b6000846040516101519190610edd565b908152602001604051809103902060009054906101000a900460ff16156101ad576040517f08c379a00000000000000000000000000000000000000000000000000000000081526004016101a490610f40565b60405180910390fd5b60016000856040516101bf9190610edd565b908152602001604051809103902060006101000a81548160ff0219169083151502179055506040518060c001604052808581526020018481526020018381526020018281526020013373ffffffffffffffffffffffffffffffffffffffff168152602001428152506001856040516102379190610edd565b9081526020016040518091039020600082015181600001908161025a919061116c565b506020820151816001019081610270919061116c565b506040820151816002019081610286919061116c565b50606082015181600301908161029c919061116c565b5060808201518160040160006101000a81548173ffffffffffffffffffffffffffffffffffffffff021916908373ffffffffffffffffffffffffffffffffffffffff16021790555060a08201518160050155905050600260003373ffffffffffffffffffffffffffffffffffffffff1673ffffffffffffffffffffffffffffffffffffffff16815260200190815260200160002084908060018154018082558091505060019003906000526020600020016000909190919091509081610362919061116c565b503373ffffffffffffffffffffffffffffffffffffffff167f02c76ba531fb49cfd60d746079da6e91336c7c28657753ab21b5f506d12c13a78585846040516103ad93929190611277565b60405180910390a250505050565b600080826040516103cc9190610edd565b908152602001604051809103902060009054906101000a900460ff169050919050565b6103f7610852565b6000826040516104079190610edd565b908152602001604051809103902060009054906101000a900460ff16610462576040517f08c379a00000000000000000000000000000000000000000000000000000000081526004016104599061130f565b60405180910390fd5b6001826040516104729190610edd565b90815260200160405180910390206040518060c001604052908160008201805461049b90610f8f565b80601f01602080910402602001604051908101604052809291908181526020018280546104c790610f8f565b80156105145780601f106104e957610100808354040283529160200191610514565b820191906000526020600020905b8154815290600101906020018083116104f757829003601f168201915b5050505050815260200160018201805461052d90610f8f565b80601f016020809104026020016040519081016040528092919081815260200182805461055990610f8f565b80156105a65780601f1061057b576101008083540402835291602001916105a6565b820191906000526020600020905b81548152906001019060200180831161058957829003601f168201915b505050505081526020016002820180546105bf90610f8f565b80601f01602080910402602001604051908101604052809291908181526020018280546105eb90610f8f565b80156106385780601f1061060d57610100808354040283529160200191610638565b820191906000526020600020905b81548152906001019060200180831161061b57829003601f168201915b5050505050815260200160038201805461065190610f8f565b80601f016020809104026020016040519081016040528092919081815260200182805461067d90610f8f565b80156106ca5780601f1061069f576101008083540402835291602001916106ca565b820191906000526020600020905b8154815290600101906020018083116106ad57829003601f168201915b505050505081526020016004820160009054906101000a900473ffffffffffffffffffffffffffffffffffffffff1673ffffffffffffffffffffffffffffffffffffffff1673ffffffffffffffffffffffffffffffffffffffff1681526020016005820154815250509050919050565b6060600260008373ffffffffffffffffffffffffffffffffffffffff1673ffffffffffffffffffffffffffffffffffffffff168152602001908152602001600020805480602002602001604051908101604052809291908181526020016000905b828210156108475783829060005260206000200180546107ba90610f8f565b80601f01602080910402602001604051908101604052809291908181526020018280546107e690610f8f565b80156108335780601f1061080857610100808354040283529160200191610833565b820191906000526020600020905b81548152906001019060200180831161081657829003601f168201915b50505050508152602001906001019061079b565b505050509050919050565b6040518060c0016040528060608152602001606081526020016060815260200160608152602001600073ffffffffffffffffffffffffffffffffffffffff168152602001600081525090565b6000604051905090565b600080fd5b600080fd5b600080fd5b600080fd5b6000601f19601f8301169050919050565b7f4e487b7100000000000000000000000000000000000000000000000000000000600052604160045260246000fd5b610905826108bc565b810181811067ffffffffffffffff82111715610924576109236108cd565b5b80604052505050565b600061093761089e565b905061094382826108fc565b919050565b600067ffffffffffffffff821115610963576109626108cd565b5b61096c826108bc565b9050602081019050919050565b82818337600083830152505050565b600061099b61099684610948565b61092d565b9050828152602081018484840111156109b7576109b66108b7565b5b6109c2848285610979565b509392505050565b600082601f8301126109df576109de6108b2565b5b81356109ef848260208601610988565b91505092915050565b60008060008060808587031215610a1257610a116108a8565b5b600085013567ffffffffffffffff811115610a3057610a2f6108ad565b5b610a3c878288016109ca565b945050602085013567ffffffffffffffff811115610a5d57610a5c6108ad565b5b610a69878288016109ca565b935050604085013567ffffffffffffffff811115610a8a57610a896108ad565b5b610a96878288016109ca565b925050606085013567ffffffffffffffff811115610ab757610ab66108ad565b5b610ac3878288016109ca565b91505092959194509250565b600060208284031215610ae557610ae46108a8565b5b600082013567ffffffffffffffff811115610b0357610b026108ad565b5b610b0f848285016109ca565b91505092915050565b60008115159050919050565b610b2d81610b18565b82525050565b6000602082019050610b486000830184610b24565b92915050565b600081519050919050565b600082825260208201905092915050565b60005b83811015610b88578082015181840152602081019050610b6d565b60008484015250505050565b6000610b9f82610b4e565b610ba98185610b59565b9350610bb9818560208601610b6a565b610bc2816108bc565b840191505092915050565b600073ffffffffffffffffffffffffffffffffffffffff82169050919050565b6000610bf882610bcd565b9050919050565b610c0881610bed565b82525050565b6000819050919050565b610c2181610c0e565b82525050565b600060c0830160008301518482036000860152610c448282610b94565b91505060208301518482036020860152610c5e8282610b94565b91505060408301518482036040860152610c788282610b94565b91505060608301518482036060860152610c928282610b94565b9150506080830151610ca76080860182610bff565b5060a0830151610cba60a0860182610c18565b508091505092915050565b60006020820190508181036000830152610cdf8184610c27565b905092915050565b610cf081610bed565b8114610cfb57600080fd5b50565b600081359050610d0d81610ce7565b92915050565b600060208284031215610d2957610d286108a8565b5b6000610d3784828501610cfe565b91505092915050565b600081519050919050565b600082825260208201905092915050565b6000819050602082019050919050565b6000610d788383610b94565b905092915050565b6000602082019050919050565b6000610d9882610d40565b610da28185610d4b565b935083602082028501610db485610d5c565b8060005b85811015610df05784840389528151610dd18582610d6c565b9450610ddc83610d80565b925060208a01995050600181019050610db8565b50829750879550505050505092915050565b60006020820190508181036000830152610e1c8184610d8d565b905092915050565b600082825260208201905092915050565b7f4349442063616e6e6f7420626520656d70747900000000000000000000000000600082015250565b6000610e6b601383610e24565b9150610e7682610e35565b602082019050919050565b60006020820190508181036000830152610e9a81610e5e565b9050919050565b600081905092915050565b6000610eb782610b4e565b610ec18185610ea1565b9350610ed1818560208601610b6a565b80840191505092915050565b6000610ee98284610eac565b915081905092915050565b7f436f6e74656e7420616c72656164792072656769737465726564000000000000600082015250565b6000610f2a601a83610e24565b9150610f3582610ef4565b602082019050919050565b60006020820190508181036000830152610f5981610f1d565b9050919050565b7f4e487b7100000000000000000000000000000000000000000000000000000000600052602260045260246000fd5b60006002820490506001821680610fa757607f821691505b602082108103610fba57610fb9610f60565b5b50919050565b60008190508160005260206000209050919050565b60006020601f8301049050919050565b600082821b905092915050565b6000600883026110227fffffffffffffffffffffffffffffffffffffffffffffffffffffffffffffffff82610fe5565b61102c8683610fe5565b95508019841693508086168417925050509392505050565b6000819050919050565b600061106961106461105f84610c0e565b611044565b610c0e565b9050919050565b6000819050919050565b6110838361104e565b61109761108f82611070565b848454610ff2565b825550505050565b600090565b6110ac61109f565b6110b781848461107a565b505050565b5b818110156110db576110d06000826110a4565b6001810190506110bd565b5050565b601f821115611120576110f181610fc0565b6110fa84610fd5565b81016020851015611109578190505b61111d61111585610fd5565b8301826110bc565b50505b505050565b600082821c905092915050565b600061114360001984600802611125565b1980831691505092915050565b600061115c8383611132565b9150826002028217905092915050565b61117582610b4e565b67ffffffffffffffff81111561118e5761118d6108cd565b5b6111988254610f8f565b6111a38282856110df565b600060209050601f8311600181146111d657600084156111c4578287015190505b6111ce8582611150565b865550611236565b601f1984166111e486610fc0565b60005b8281101561120c578489015182556001820191506020850194506020810190506111e7565b868310156112295784890151611225601f891682611132565b8355505b6001600288020188555050505b505050505050565b600061124982610b4e565b6112538185610e24565b9350611263818560208601610b6a565b61126c816108bc565b840191505092915050565b60006060820190508181036000830152611291818661123e565b905081810360208301526112a5818561123e565b905081810360408301526112b9818461123e565b9050949350505050565b7f436f6e74656e74206e6f7420666f756e64000000000000000000000000000000600082015250565b60006112f9601183610e24565b9150611304826112c3565b602082019050919050565b60006020820190508181036000830152611328816112ec565b905091905056fea2646970667358221220d1f72043b92fec3e5f3ca4d3ed59847cb963e995aa3c337c2d533308a49e9e3564736f6c634300081c0033",
  "linkReferences": {},
  "deployedLinkReferences": {}
}